{
  "_format": "hh-sol-artifact-1",
  "contractName": "TouristID",
  "sourceName": "contracts/TouristID.sol",
  "abi": [
    {
      "inputs": [],
      "stateMutability": "nonpayable",
      "type": "constructor"
    },
    {
      "inputs": [],
      "name": "AccessControlBadConfirmation",
      "type": "error"
    },
    {
      "inputs": [
        {
          "internalType": "address",
          "name": "account",
          "type": "address"
        },
        {
          "internalType": "bytes32",
          "name": "neededRole",
          "type": "bytes32"
        }
      ],
      "name": "AccessControlUnauthorizedAccount",
      "type": "error"
    },
    {
      "anonymous": false,
      "inputs": [
        {
          "indexed": true,
          "internalType": "bytes32",
          "name": "role",
          "type": "bytes32"
        },
        {
          "indexed": true,
          "internalType": "bytes32",
          "name": "previousAdminRole",
          "type": "bytes32"
        },
        {
          "indexed": true,
          "internalType": "bytes32",
          "name": "newAdminRole",
          "type": "bytes32"
        }
      ],
      "name": "RoleAdminChanged",
      "type": "event"
    },
    {
      "anonymous": false,
      "inputs": [
        {
          "indexed": true,
          "internalType": "bytes32",
          "name": "role",
          "type": "bytes32"
        },
        {
          "indexed": true,
          "internalType": "address",
          "name": "account",
          "type": "address"
        },
        {
          "indexed": true,
          "internalType": "address",
          "name": "sender",
          "type": "address"
        }
      ],
      "name": "RoleGranted",
      "type": "event"
    },
    {
      "anonymous": false,
      "inputs": [
        {
          "indexed": true,
          "internalType": "bytes32",
          "name": "role",
          "type": "bytes32"
        },
        {
          "indexed": true,
          "internalType": "address",
          "name": "account",
          "type": "address"
        },
        {
          "indexed": true,
          "internalType": "address",
          "name": "sender",
          "type": "address"
        }
      ],
      "name": "RoleRevoked",
      "type": "event"
    },
    {
      "anonymous": false,
      "inputs": [
        {
          "indexed": true,
          "internalType": "address",
          "name": "touristAddress",
          "type": "address"
        },
        {
          "indexed": false,
          "internalType": "string",
          "name": "name",
          "type": "string"
        }
      ],
      "name": "TouristRegistered",
      "type": "event"
    },
    {
      "inputs": [],
      "name": "DEFAULT_ADMIN_ROLE",
      "outputs": [
        {
          "internalType": "bytes32",
          "name": "",
          "type": "bytes32"
        }
      ],
      "stateMutability": "view",
      "type": "function"
    },
    {
      "inputs": [],
      "name": "POLICE_ROLE",
      "outputs": [
        {
          "internalType": "bytes32",
          "name": "",
          "type": "bytes32"
        }
      ],
      "stateMutability": "view",
      "type": "function"
    },
    {
      "inputs": [],
      "name": "TOURISM_ROLE",
      "outputs": [
        {
          "internalType": "bytes32",
          "name": "",
          "type": "bytes32"
        }
      ],
      "stateMutability": "view",
      "type": "function"
    },
    {
      "inputs": [
        {
          "internalType": "bytes32",
          "name": "role",
          "type": "bytes32"
        }
      ],
      "name": "getRoleAdmin",
      "outputs": [
        {
          "internalType": "bytes32",
          "name": "",
          "type": "bytes32"
        }
      ],
      "stateMutability": "view",
      "type": "function"
    },
    {
      "inputs": [
        {
          "internalType": "address",
          "name": "_touristAddress",
          "type": "address"
        }
      ],
      "name": "getTourist",
      "outputs": [
        {
          "components": [
            {
              "internalType": "string",
              "name": "name",
              "type": "string"
            },
            {
              "internalType": "bytes32",
              "name": "kycHash",
              "type": "bytes32"
            },
            {
              "internalType": "bytes32",
              "name": "itineraryHash",
              "type": "bytes32"
            },
            {
              "internalType": "string",
              "name": "emergencyContact",
              "type": "string"
            },
            {
              "internalType": "uint32",
              "name": "startDate",
              "type": "uint32"
            },
            {
              "internalType": "uint32",
              "name": "endDate",
              "type": "uint32"
            },
            {
              "internalType": "bool",
              "name": "exists",
              "type": "bool"
            }
          ],
          "internalType": "struct TouristID.Tourist",
          "name": "",
          "type": "tuple"
        }
      ],
      "stateMutability": "view",
      "type": "function"
    },
    {
      "inputs": [
        {
          "internalType": "bytes32",
          "name": "role",
          "type": "bytes32"
        },
        {
          "internalType": "address",
          "name": "account",
          "type": "address"
        }
      ],
      "name": "grantRole",
      "outputs": [],
      "stateMutability": "nonpayable",
      "type": "function"
    },
    {
      "inputs": [
        {
          "internalType": "bytes32",
          "name": "role",
          "type": "bytes32"
        },
        {
          "internalType": "address",
          "name": "account",
          "type": "address"
        }
      ],
      "name": "hasRole",
      "outputs": [
        {
          "internalType": "bool",
          "name": "",
          "type": "bool"
        }
      ],
      "stateMutability": "view",
      "type": "function"
    },
    {
      "inputs": [
        {
          "internalType": "address",
          "name": "_touristAddress",
          "type": "address"
        },
        {
          "internalType": "string",
          "name": "_name",
          "type": "string"
        },
        {
          "internalType": "bytes32",
          "name": "_kycHash",
          "type": "bytes32"
        },
        {
          "internalType": "bytes32",
          "name": "_itineraryHash",
          "type": "bytes32"
        },
        {
          "internalType": "string",
          "name": "_emergencyContact",
          "type": "string"
        },
        {
          "internalType": "uint32",
          "name": "_startDate",
          "type": "uint32"
        },
        {
          "internalType": "uint32",
          "name": "_endDate",
          "type": "uint32"
        }
      ],
      "name": "registerTourist",
      "outputs": [],
      "stateMutability": "nonpayable",
      "type": "function"
    },
    {
      "inputs": [
        {
          "internalType": "bytes32",
          "name": "role",
          "type": "bytes32"
        },
        {
          "internalType": "address",
          "name": "callerConfirmation",
          "type": "address"
        }
      ],
      "name": "renounceRole",
      "outputs": [],
      "stateMutability": "nonpayable",
      "type": "function"
    },
    {
      "inputs": [
        {
          "internalType": "bytes32",
          "name": "role",
          "type": "bytes32"
        },
        {
          "internalType": "address",
          "name": "account",
          "type": "address"
        }
      ],
      "name": "revokeRole",
      "outputs": [],
      "stateMutability": "nonpayable",
      "type": "function"
    },
    {
      "inputs": [
        {
          "internalType": "bytes4",
          "name": "interfaceId",
          "type": "bytes4"
        }
      ],
      "name": "supportsInterface",
      "outputs": [
        {
          "internalType": "bool",
          "name": "",
          "type": "bool"
        }
      ],
      "stateMutability": "view",
      "type": "function"
    }
  ],
  "bytecode": "0x608060405234801561001057600080fd5b506117b3806100206000396000f3fe608060405234801561001057600080fd5b50600436106100a95760003560e01c806336568abe1161007157806336568abe1461016657806391d1485414610182578063a217fddf146101b2578063bf33cd4a146101d0578063d547741f14610200578063f26269f91461021c576100a9565b806301ffc9a7146100ae5780632087a00e146100de578063248a9ca3146100fc5780632f2ff15d1461012c5780632f6b167614610148575b600080fd5b6100c860048036038101906100c39190610d25565b610238565b6040516100d59190610d6d565b60405180910390f35b6100e66102b2565b6040516100f39190610da1565b60405180910390f35b61011660048036038101906101119190610de8565b6102d6565b6040516101239190610da1565b60405180910390f35b61014660048036038101906101419190610e73565b6102f5565b005b610150610317565b60405161015d9190610da1565b60405180910390f35b610180600480360381019061017b9190610e73565b61033b565b005b61019c60048036038101906101979190610e73565b6103b6565b6040516101a99190610d6d565b60405180910390f35b6101ba610420565b6040516101c79190610da1565b60405180910390f35b6101ea60048036038101906101e59190610eb3565b610427565b6040516101f79190611050565b60405180910390f35b61021a60048036038101906102159190610e73565b610748565b005b610236600480360381019061023191906111d3565b61076a565b005b60007f7965db0b000000000000000000000000000000000000000000000000000000007bffffffffffffffffffffffffffffffffffffffffffffffffffffffff1916827bffffffffffffffffffffffffffffffffffffffffffffffffffffffff191614806102ab57506102aa826109ae565b5b9050919050565b7f3c897272fb756004d8a8588422a9ce6e04768b2d705bbde7a87ceb35e9b9c5d981565b6000806000838152602001908152602001600020600101549050919050565b6102fe826102d6565b61030781610a18565b6103118383610a2c565b50505050565b7f5b19ce4b5c8feac4ff09a5f1e6dda0c6943aa99b427c1080c3f3eb35a704442a81565b610343610b1d565b73ffffffffffffffffffffffffffffffffffffffff168173ffffffffffffffffffffffffffffffffffffffff16146103a7576040517f6697b23200000000000000000000000000000000000000000000000000000000815260040160405180910390fd5b6103b18282610b25565b505050565b600080600084815260200190815260200160002060000160008373ffffffffffffffffffffffffffffffffffffffff1673ffffffffffffffffffffffffffffffffffffffff16815260200190815260200160002060009054906101000a900460ff16905092915050565b6000801b81565b61042f610c68565b6104597f3c897272fb756004d8a8588422a9ce6e04768b2d705bbde7a87ceb35e9b9c5d9336103b6565b8061048a57506104897f5b19ce4b5c8feac4ff09a5f1e6dda0c6943aa99b427c1080c3f3eb35a704442a336103b6565b5b6104c9576040517f08c379a00000000000000000000000000000000000000000000000000000000081526004016104c09061130a565b60405180910390fd5b600160008373ffffffffffffffffffffffffffffffffffffffff1673ffffffffffffffffffffffffffffffffffffffff16815260200190815260200160002060040160089054906101000a900460ff16610558576040517f08c379a000000000000000000000000000000000000000000000000000000000815260040161054f90611376565b60405180910390fd5b600160008373ffffffffffffffffffffffffffffffffffffffff1673ffffffffffffffffffffffffffffffffffffffff1681526020019081526020016000206040518060e00160405290816000820180546105b2906113c5565b80601f01602080910402602001604051908101604052809291908181526020018280546105de906113c5565b801561062b5780601f106106005761010080835404028352916020019161062b565b820191906000526020600020905b81548152906001019060200180831161060e57829003601f168201915b505050505081526020016001820154815260200160028201548152602001600382018054610658906113c5565b80601f0160208091040260200160405190810160405280929190818152602001828054610684906113c5565b80156106d15780601f106106a6576101008083540402835291602001916106d1565b820191906000526020600020905b8154815290600101906020018083116106b457829003601f168201915b505050505081526020016004820160009054906101000a900463ffffffff1663ffffffff1663ffffffff1681526020016004820160049054906101000a900463ffffffff1663ffffffff1663ffffffff1681526020016004820160089054906101000a900460ff1615151515815250509050919050565b610751826102d6565b61075a81610a18565b6107648383610b25565b50505050565b7f5b19ce4b5c8feac4ff09a5f1e6dda0c6943aa99b427c1080c3f3eb35a704442a61079481610a18565b600160008973ffffffffffffffffffffffffffffffffffffffff1673ffffffffffffffffffffffffffffffffffffffff16815260200190815260200160002060040160089054906101000a900460ff1615610824576040517f08c379a000000000000000000000000000000000000000000000000000000000815260040161081b90611442565b60405180910390fd5b6040518060e001604052808881526020018781526020018681526020018581526020018463ffffffff1681526020018363ffffffff16815260200160011515815250600160008a73ffffffffffffffffffffffffffffffffffffffff1673ffffffffffffffffffffffffffffffffffffffff16815260200190815260200160002060008201518160000190816108ba9190611618565b50602082015181600101556040820151816002015560608201518160030190816108e49190611618565b5060808201518160040160006101000a81548163ffffffff021916908363ffffffff16021790555060a08201518160040160046101000a81548163ffffffff021916908363ffffffff16021790555060c08201518160040160086101000a81548160ff0219169083151502179055509050508773ffffffffffffffffffffffffffffffffffffffff167fbc893bb14723c79ec07b43496d1ddfbf7561aacc7902b98bd79cdc97608a09858860405161099c9190611723565b60405180910390a25050505050505050565b60007f01ffc9a7000000000000000000000000000000000000000000000000000000007bffffffffffffffffffffffffffffffffffffffffffffffffffffffff1916827bffffffffffffffffffffffffffffffffffffffffffffffffffffffff1916149050919050565b610a2981610a24610b1d565b610c17565b50565b6000610a3883836103b6565b610b1257600160008085815260200190815260200160002060000160008473ffffffffffffffffffffffffffffffffffffffff1673ffffffffffffffffffffffffffffffffffffffff16815260200190815260200160002060006101000a81548160ff021916908315150217905550610aaf610b1d565b73ffffffffffffffffffffffffffffffffffffffff168273ffffffffffffffffffffffffffffffffffffffff16847f2f8788117e7eff1d82e926ec794901d17c78024a50270940304540a733656f0d60405160405180910390a460019050610b17565b600090505b92915050565b600033905090565b6000610b3183836103b6565b15610c0c57600080600085815260200190815260200160002060000160008473ffffffffffffffffffffffffffffffffffffffff1673ffffffffffffffffffffffffffffffffffffffff16815260200190815260200160002060006101000a81548160ff021916908315150217905550610ba9610b1d565b73ffffffffffffffffffffffffffffffffffffffff168273ffffffffffffffffffffffffffffffffffffffff16847ff6391f5c32d9c69d2a47ea670b442974b53935d1edc7fd64eb21e047a839171b60405160405180910390a460019050610c11565b600090505b92915050565b610c2182826103b6565b610c645780826040517fe2517d3f000000000000000000000000000000000000000000000000000000008152600401610c5b929190611754565b60405180910390fd5b5050565b6040518060e0016040528060608152602001600080191681526020016000801916815260200160608152602001600063ffffffff168152602001600063ffffffff1681526020016000151581525090565b6000604051905090565b600080fd5b600080fd5b60007fffffffff0000000000000000000000000000000000000000000000000000000082169050919050565b610d0281610ccd565b8114610d0d57600080fd5b50565b600081359050610d1f81610cf9565b92915050565b600060208284031215610d3b57610d3a610cc3565b5b6000610d4984828501610d10565b91505092915050565b60008115159050919050565b610d6781610d52565b82525050565b6000602082019050610d826000830184610d5e565b92915050565b6000819050919050565b610d9b81610d88565b82525050565b6000602082019050610db66000830184610d92565b92915050565b610dc581610d88565b8114610dd057600080fd5b50565b600081359050610de281610dbc565b92915050565b600060208284031215610dfe57610dfd610cc3565b5b6000610e0c84828501610dd3565b91505092915050565b600073ffffffffffffffffffffffffffffffffffffffff82169050919050565b6000610e4082610e15565b9050919050565b610e5081610e35565b8114610e5b57600080fd5b50565b600081359050610e6d81610e47565b92915050565b60008060408385031215610e8a57610e89610cc3565b5b6000610e9885828601610dd3565b9250506020610ea985828601610e5e565b9150509250929050565b600060208284031215610ec957610ec8610cc3565b5b6000610ed784828501610e5e565b91505092915050565b600081519050919050565b600082825260208201905092915050565b60005b83811015610f1a578082015181840152602081019050610eff565b60008484015250505050565b6000601f19601f8301169050919050565b6000610f4282610ee0565b610f4c8185610eeb565b9350610f5c818560208601610efc565b610f6581610f26565b840191505092915050565b610f7981610d88565b82525050565b600063ffffffff82169050919050565b610f9881610f7f565b82525050565b610fa781610d52565b82525050565b600060e0830160008301518482036000860152610fca8282610f37565b9150506020830151610fdf6020860182610f70565b506040830151610ff26040860182610f70565b506060830151848203606086015261100a8282610f37565b915050608083015161101f6080860182610f8f565b5060a083015161103260a0860182610f8f565b5060c083015161104560c0860182610f9e565b508091505092915050565b6000602082019050818103600083015261106a8184610fad565b905092915050565b600080fd5b600080fd5b7f4e487b7100000000000000000000000000000000000000000000000000000000600052604160045260246000fd5b6110b482610f26565b810181811067ffffffffffffffff821117156110d3576110d261107c565b5b80604052505050565b60006110e6610cb9565b90506110f282826110ab565b919050565b600067ffffffffffffffff8211156111125761111161107c565b5b61111b82610f26565b9050602081019050919050565b82818337600083830152505050565b600061114a611145846110f7565b6110dc565b90508281526020810184848401111561116657611165611077565b5b611171848285611128565b509392505050565b600082601f83011261118e5761118d611072565b5b813561119e848260208601611137565b91505092915050565b6111b081610f7f565b81146111bb57600080fd5b50565b6000813590506111cd816111a7565b92915050565b600080600080600080600060e0888a0312156111f2576111f1610cc3565b5b60006112008a828b01610e5e565b975050602088013567ffffffffffffffff81111561122157611220610cc8565b5b61122d8a828b01611179565b965050604061123e8a828b01610dd3565b955050606061124f8a828b01610dd3565b945050608088013567ffffffffffffffff8111156112705761126f610cc8565b5b61127c8a828b01611179565b93505060a061128d8a828b016111be565b92505060c061129e8a828b016111be565b91505092959891949750929550565b600082825260208201905092915050565b7f4163636573732064656e69656400000000000000000000000000000000000000600082015250565b60006112f4600d836112ad565b91506112ff826112be565b602082019050919050565b60006020820190508181036000830152611323816112e7565b9050919050565b7f4e6f7420666f756e640000000000000000000000000000000000000000000000600082015250565b60006113606009836112ad565b915061136b8261132a565b602082019050919050565b6000602082019050818103600083015261138f81611353565b9050919050565b7f4e487b7100000000000000000000000000000000000000000000000000000000600052602260045260246000fd5b600060028204905060018216806113dd57607f821691505b6020821081036113f0576113ef611396565b5b50919050565b7f416c726561647920726567697374657265640000000000000000000000000000600082015250565b600061142c6012836112ad565b9150611437826113f6565b602082019050919050565b6000602082019050818103600083015261145b8161141f565b9050919050565b60008190508160005260206000209050919050565b60006020601f8301049050919050565b600082821b905092915050565b6000600883026114c47fffffffffffffffffffffffffffffffffffffffffffffffffffffffffffffffff82611487565b6114ce8683611487565b95508019841693508086168417925050509392505050565b6000819050919050565b6000819050919050565b600061151561151061150b846114e6565b6114f0565b6114e6565b9050919050565b6000819050919050565b61152f836114fa565b61154361153b8261151c565b848454611494565b825550505050565b600090565b61155861154b565b611563818484611526565b505050565b5b818110156115875761157c600082611550565b600181019050611569565b5050565b601f8211156115cc5761159d81611462565b6115a684611477565b810160208510156115b5578190505b6115c96115c185611477565b830182611568565b50505b505050565b600082821c905092915050565b60006115ef600019846008026115d1565b1980831691505092915050565b600061160883836115de565b9150826002028217905092915050565b61162182610ee0565b67ffffffffffffffff81111561163a5761163961107c565b5b61164482546113c5565b61164f82828561158b565b600060209050601f8311600181146116825760008415611670578287015190505b61167a85826115fc565b8655506116e2565b601f19841661169086611462565b60005b828110156116b857848901518255600182019150602085019450602081019050611693565b868310156116d557848901516116d1601f8916826115de565b8355505b6001600288020188555050505b505050505050565b60006116f582610ee0565b6116ff81856112ad565b935061170f818560208601610efc565b61171881610f26565b840191505092915050565b6000602082019050818103600083015261173d81846116ea565b905092915050565b61174e81610e35565b82525050565b60006040820190506117696000830185611745565b6117766020830184610d92565b939250505056fea264697066735822122040d394098b7c2c62f9168edb649957f5f73283655ea8e144bb5292de1e5b61af64736f6c63430008140033",
  "linkReferences": {},
  "deployedLinkReferences": {}
}